:100000000C9454000C9466000C9466000C946600EA
:100010000C9466000C9466000C9466000C946600C8
:100020000C9466000C9466000C9466000C946600B8
:100030000C9466000C9466000C9466000C946600A8
:100040000C9466000C9466000C9466000C94660098
:100050000C9466000C9466000C9466000C94660088
:100060000C9466000C9466000C9468000C94660076
:100070000C9466000C9466000C947D000C94660051
:100080000C9466000C9466000C9466000C94660058
:100090000C9466000C9466000C9466000C94660048
:1000A0000C9466000C94660011241FBECFEFCDBFE8
:1000B000DFE7DEBF20E7A0E0B0E701C01D92A3307C
:1000C000B207E1F70E94C0000C94D3000C9400002A
:1000D0008F939F93EF93FF93E0E0F6E0808990E0A9
:1000E000809300709093017081E080930270858707
:1000F000FF91EF919F918F9118958F938091490473
:1001000083FF03C088E0809349048F91189588E0AD
:10011000809367040895E0E6F4E08189887F818B0D
:1001200081898460818B8189877F818B86E0809340
:10013000B000E0E0F6E081E0808782831182808376
:100140000895E0E0F6E081E084878287089582E008
:10015000809353040895E0E0F4E08EED80831482F0
:10016000E0E4F4E085E080831482E0E6F4E08CE1F2
:1001700080831482E0EAF4E081E0808314820895B1
:100180000E94AB000E948B0088E0809367042FE7F9
:1001900034E89EE1215030409040E1F700C000007B
:0A01A00090910270F2CFF894FFCFA7
:00000001FF
