:100000000C9454000C9466000C9466000C946600EA
:100010000C9466000C9466000C9466000C946600C8
:100020000C9466000C9466000C9466000C946600B8
:100030000C9466000C9466000C9466000C946600A8
:100040000C9466000C9466000C9466000C94660098
:100050000C9466000C9466000C9466000C94660088
:100060000C9466000C9466000C9468000C94660076
:100070000C9466000C9466000C9466000C94660068
:100080000C9466000C9466000C9466000C94660058
:100090000C9466000C9466000C9466000C94660048
:1000A0000C9466000C94660011241FBECFEFCDBFE8
:1000B000DFE7DEBF20E7A0E0B0E701C01D92A3307C
:1000C000B207E1F70E94B0000C94C3000C9400004A
:1000D0008F939F93EF93FF93E0E0F6E0808990E0A9
:1000E000809300709093017081E080930270858707
:1000F000FF91EF919F918F91189588E0809367040D
:100100000895E0E6F4E08189887F818B81898460AD
:10011000818B8189877F818B86E08093B000E0E0CE
:10012000F6E081E08087828311828083089581E0F8
:1001300080930A060895E0E0F4E08EE5808314825F
:10014000E0E4F4E085E080831482E0E6F4E08CED06
:1001500080831482E0EAF4E081E0808314820895D1
:100160000E949B000E94810088E0809367042FE733
:1001700034E89EE1215030409040E1F700C000009B
:0A01800090910270F2CFF894FFCFC7
:00000001FF
