:100000000C9454000C945E000C945E000C945E0002
:100010000C945E000C945E000C945E000C945E00E8
:100020000C945E000C945E000C945E000C945E00D8
:100030000C945E000C945E000C945E000C945E00C8
:100040000C945E000C945E000C945E000C945E00B8
:100050000C945E000C945E000C945E000C945E00A8
:100060000C945E000C945E000C945E000C945E0098
:100070000C945E000C945E000C945E000C945E0088
:100080000C945E000C945E000C945E000C945E0078
:100090000C945E000C945E000C945E000C945E0068
:1000A0000C945E000C945E0011241FBECFEFCDBFF8
:1000B000DFE7DEBF0E9491000C9496000C940000D4
:1000C00081E080930A0680910D0680FFFCCF80912D
:1000D00010069091110624E0969587952A95E1F7F0
:1000E000089582E08093B000E0E0F6E0808784E04D
:1000F000818381E080830895E0E0F4E08EE58083F1
:100100001482E0E4F4E085E080831482E0E6F4E029
:100110008CED80831482E0EAF4E081E08083148235
:1001200008950E947C000E947100FFCFF894FFCFD9
:00000001FF
