:100000000C9454000C9466000C9466000C946600EA
:100010000C9466000C9466000C9466000C946600C8
:100020000C9466000C9466000C9466000C946600B8
:100030000C9466000C9466000C9466000C946600A8
:100040000C9466000C9466000C9466000C94660098
:100050000C9466000C9466000C9466000C94660088
:100060000C9466000C9466000C9444010C94660099
:100070000C9466000C9466000C9468000C94660066
:100080000C9466000C9466000C9466000C94660058
:100090000C9466000C9466000C94A3000C94DD0094
:1000A0000C9466000C94660011241FBECFEFCDBFE8
:1000B000DFE7DEBF23E7A0E0B0E701C01D92A83074
:1000C000B207E1F70E9475010C948D010C940000B9
:1000D0008F938091490483FF03C088E08093490493
:1000E0008F91189588E080936704089582E080934B
:1000F00053040895E0E0F4E08EED80831482E0E4A0
:10010000F4E085E080831482E0E6F4E08CE1808313
:100110001482E0EAF4E081E0808314820895E0EE46
:10012000F5E082818F7C8283E0E4F8E087E490E16F
:100130008087918783E0878382E8868380EA85834E
:1001400080E4848308951F921FB61F9211242F9379
:100150003F938F939F93EF93FF93809103709091C0
:1001600004709C012F5F3F4F209303703093047005
:1001700020910008885F9D48FC01208380910370D6
:10018000909104708F3F910529F020F01092037038
:1001900010920470FF91EF919F918F913F912F9159
:1001A0001F901FBE1F901895E0E4F8E086818F7BBA
:1001B000868385818F7D858308951F920F920FB668
:1001C0000F9211242F933F934F935F936F937F93DD
:1001D0008F939F93AF93BF93EF93FF9380910070A2
:1001E000811102C00E94D400809101709091027030
:1001F0009C012F5F3F4F2093017030930270885F06
:100200009F48FC018081209101703091027021157E
:10021000324020F0109201701092027080932208F8
:10022000811102C010920070FF91EF91BF91AF91C8
:100230009F918F917F916F915F914F913F912F91FE
:100240000F900FBE0F901F901895E0E4F8E08681A4
:100250008064868385818062858308950F931F93D0
:10026000CF93DF93EC018B010E942501809144081C
:1002700085FFFCCFC00FD11F888180932208DF91BA
:10028000CF911F910F9108958F939F93EF93FF93B9
:10029000E0E0F6E080899189809305709093067084
:1002A00081E0809307708587FF91EF919F918F91F7
:1002B0001895E0E6F4E08189887F818B81898460EC
:1002C000818B8189877F818B86E08093B000E0E01D
:1002D000F6E081E080878283118280830895E0E0E8
:1002E000F6E081E0848782870895F8940E947A007E
:1002F0000E94590182E0809353040E948F007894F9
:1003000088E0809367042FE734E89EE12150304075
:0E0310009040E1F700C00000F4CFF894FFCF5A
:00000001FF
