:100000000C9454000C945E000C945E000C945E0002
:100010000C945E000C945E000C945E000C945E00E8
:100020000C945E000C945E000C945E000C945E00D8
:100030000C945E000C945E000C945E000C945E00C8
:100040000C945E000C945E000C945E000C945E00B8
:100050000C945E000C945E000C945E000C945E00A8
:100060000C945E000C945E000C945E000C945E0098
:100070000C945E000C945E000C945E000C945E0088
:100080000C945E000C945E000C945E000C945E0078
:100090000C945E000C945E000C945E000C945E0068
:1000A0000C945E000C945E0011241FBECFEFCDBFF8
:1000B000DFE7DEBF0E94A4000C94B5000C940000A2
:1000C00081E080930A0680910D0680FFFCCF80912D
:1000D00010069091110624E0969587952A95E1F7F0
:1000E000089588E0809367040895E0E6F4E081894C
:1000F000887F818B81898460818B8189877F818BD7
:1001000086E08093B000E0E0F6E081E080878283C3
:1001100011828083089581E080930A060895E0E0CB
:10012000F4E08EE580831482E0E4F4E085E08083EF
:100130001482E0E6F4E08CED80831482E0EAF4E0DF
:1001400081E08083148208950E948F000E947500D0
:1001500088E0809367042FE734E89EE12150304027
:0E0160009040E1F700C00000F4CFF894FFCF0C
:00000001FF
