:100000000C9454000C9466000C9466000C946600EA
:100010000C9466000C9466000C9466000C946600C8
:100020000C9466000C9466000C9466000C946600B8
:100030000C9466000C9466000C9466000C946600A8
:100040000C9466000C9466000C9466000C94660098
:100050000C9466000C9487000C9466000C94B80015
:100060000C9466000C9466000C9468000C94660076
:100070000C9466000C9466000C947D000C94660051
:100080000C9466000C9466000C9466000C94660058
:100090000C9466000C9466000C9466000C94660048
:1000A0000C9466000C94660011241FBECFEFCDBFE8
:1000B000DFE7DEBF21E7A0E0B0E701C01D92A53079
:1000C000B207E1F70E940B010C9423010C9400008D
:1000D0008F939F93EF93FF93E0E0F6E0808990E0A9
:1000E000809302709093037081E080930470858701
:1000F000FF91EF919F918F9118958F938091490473
:1001000083FF03C088E0809349048F9118951F9264
:100110001FB61F9211242F933F938F939F93EF93BA
:10012000FF9380910070909101709C012F5F3F4F71
:100130002093007030930170209100088B5F9F48DE
:10014000FC01208380910070909101708F3F910598
:1001500029F020F01092007010920170FF91EF9141
:100160009F918F913F912F911F901FBE1F901895C7
:100170008F9380E4809344088F91189588E0809352
:1001800067040895E0E6F4E08189887F818B8189A6
:100190008460818B8189877F818B86E08093B0002A
:1001A000E0E0F6E081E08087828311828083089519
:1001B000E0E0F6E081E084878287089582E0809322
:1001C00053040895E0E0F4E08EED80831482E0E4CF
:1001D000F4E085E080831482E0E6F4E08CE1808343
:1001E0001482E0EAF4E081E0808314820895E0EE76
:1001F000F5E082818F7C8283E0E4F8E080EC858307
:1002000082EC868383E0878387E490E1808791870F
:1002100080E484830895F8940E94E2000E94C20062
:1002200082E080935304789488E0809367042FE7FA
:1002300034E89EE1215030409040E1F700C00000DA
:0A02400090910470F2CFF894FFCF04
:00000001FF
